{"contracts/Verifier.sol":{"PlonkVerifier":{"abi":[{"inputs":[{"internalType":"uint256[24]","name":"_proof","type":"uint256[24]"},{"internalType":"uint256[2]","name":"_pubSignals","type":"uint256[2]"}],"name":"verifyProof","outputs":[{"internalType":"bool","name":"","type":"bool"}],"stateMutability":"view","type":"function"}],"evm":{"bytecode":{"linkReferences":{},"object":"6080604052348015600f57600080fd5b50611d848061001f6000396000f3fe608060405234801561001057600080fd5b506004361061002b5760003560e01c8063c0e9d81c14610030575b600080fd5b61004a60048036038101906100459190611cd6565b610060565b6040516100579190611d33565b60405180910390f35b6000611c19565b600080600184846000805b821561009c5782840591508482028603905084955080945082820284039050829350809250610072565b60018411156100aa57600080fd5b60008612156100b95788860195505b85965050505050505092915050565b60405181602084028301815160208301925060005b82841015610120578185527f30644e72e131a029b85045b68181585d2833e84879b9709143e1f593f00000018451830991506020850194506020840193506100dd565b61014a7f30644e72e131a029b85045b68181585d2833e84879b9709143e1f593f000000183610067565b91506020850394506020840393508592505b828411156101c6577f30644e72e131a029b85045b68181585d2833e84879b9709143e1f593f00000018551830990507f30644e72e131a029b85045b68181585d2833e84879b9709143e1f593f000000184518309915080845260208503945060208403935061015c565b81845250505050505050565b7f30644e72e131a029b85045b68181585d2833e84879b9709143e1f593f00000018110610203576000805260206000f35b50565b610212610244356101d2565b61021e610264356101d2565b61022a610284356101d2565b6102366102a4356101d2565b6102426102c4356101d2565b61024e6102e4356101d2565b565b6000806040517f1d60d283614b1d768c3a4e1d69297eb889b6db1f73fbbfed5730913ad32f83f681527f266fc2ac7d669c7e7cbc31c3432d49a8f10813e45bd346580b8c4b27047c926d60208201527f2e5b01c2b8210b57a4c14d0c417540f37ec6cdc219e90f23b570f4731c43de8960408201527f0a1c204d930ef3cc949757cf07ce8492be4f711705b0ef105d0f5c7ded2d9dd960608201527f2bdd5cd1d2e13344d9459f85a97771da8192f5ef81d4179517bd2d6a3b7d0f1e60808201527f269d01f3c4867a743ac2cd3225c26e95c42f4e02f9cdb725746f4dcdb8f99e0f60a08201527f23ebd040599447545228fa4e58abb85e9ec537d2aefdb4a2757c90a546392f7b60c08201527f0b78d34acc388bfae23a7485df6d4f5f7dd87850f18cd83928f1302d52826d7360e08201527f2dc5274f0eae7741e80dc0171e57cea4e7659f871c904bce1e14f92d45f4b9546101008201527f2199e3e9da9a7213f9a6b92a5c0d8d55298840d5938c9bae72fd6b74293a51bf6101208201527f15f87b47c61e1288b2bc98e522e65ead82a6abec953b2d7614ce85ad4b484e226101408201527e8a8570c77f992d57b8352604aeb65f5b91af4cb3b2e7e746cab0f23bf394606101608201527f149305732ed15f1fa498c9fbab30feb6480ca59c0f3db066e8928840ff0048a36101808201527f2b905ba944995cb013bd4f5fe8d0759233294414d46666129cee3c0158721a4a6101a08201527f124cf6030780de74a42796c0c475e24715c5622c7c838a8c98297433a5d968406101c08201527f0e47946755d53a99c7da6891345739f6d868645d2a4ffb9bf1c9aa7eb455782f6101e0820152600085013561020082015260208501356102208201526004356102408201526020600401356102608201526044356102808201526020604401356102a08201526084356102c08201526020608401356102e08201527f30644e72e131a029b85045b68181585d2833e84879b9709143e1f593f000000161030082200692508260208501527f30644e72e131a029b85045b68181585d2833e84879b9709143e1f593f0000001602080860120066040850152602084015181526040840151602082015260c4356040820152602060c4013560608201527f30644e72e131a029b85045b68181585d2833e84879b9709143e1f593f0000001608082200691508160008501527f30644e72e131a029b85045b68181585d2833e84879b9709143e1f593f00000018283096102c08501528181526101043560208201526020610104013560408201526101443560608201526020610144013560808201526101843560a08201526020610184013560c08201527f30644e72e131a029b85045b68181585d2833e84879b9709143e1f593f000000160e082200691508160608501528181526102443560208201526102643560408201526102843560608201526102a43560808201526102c43560a08201526102e43560c08201527f30644e72e131a029b85045b68181585d2833e84879b9709143e1f593f000000160e08220068060c08601527f30644e72e131a029b85045b68181585d2833e84879b9709143e1f593f000000183850960a08601527f30644e72e131a029b85045b68181585d2833e84879b9709143e1f593f000000183840992507f30644e72e131a029b85045b68181585d2833e84879b9709143e1f593f000000183840992507f30644e72e131a029b85045b68181585d2833e84879b9709143e1f593f000000183840992507f30644e72e131a029b85045b68181585d2833e84879b9709143e1f593f000000183840992507f30644e72e131a029b85045b68181585d2833e84879b9709143e1f593f000000183840992507f30644e72e131a029b85045b68181585d2833e84879b9709143e1f593f000000183840992507f30644e72e131a029b85045b68181585d2833e84879b9709143e1f593f000000183840992507f30644e72e131a029b85045b68181585d2833e84879b9709143e1f593f000000183840992507f30644e72e131a029b85045b68181585d2833e84879b9709143e1f593f000000183840992507f30644e72e131a029b85045b68181585d2833e84879b9709143e1f593f000000183840992507f30644e72e131a029b85045b68181585d2833e84879b9709143e1f593f000000183840992507f30644e72e131a029b85045b68181585d2833e84879b9709143e1f593f000000183840992508260808601527f30644e72e131a029b85045b68181585d2833e84879b9709143e1f593f0000001806001850301069250826102e0860152826103008601527f30644e72e131a029b85045b68181585d2833e84879b9709143e1f593f000000181820992508260e08601527f30644e72e131a029b85045b68181585d2833e84879b9709143e1f593f00000018184099250826101008601527f30644e72e131a029b85045b68181585d2833e84879b9709143e1f593f00000018184099250826101208601527f30644e72e131a029b85045b68181585d2833e84879b9709143e1f593f00000018184099250826101408601526101c435825260206101c4013560208301526102043560408301526020610204013560608301527f30644e72e131a029b85045b68181585d2833e84879b9709143e1f593f00000016080832006610160860152505050505050565b60017f30644e72e131a029b85045b68181585d2833e84879b9709143e1f593f0000001807f30644e72e131a029b85045b68181585d2833e84879b9709143e1f593f0000001836060860151030106611000096103208301527f30644e72e131a029b85045b68181585d2833e84879b9709143e1f593f00000017f0931d596de2fd10f01ddd073fd5a90a976f169c76f039bb91c4775720042d43a820990507f30644e72e131a029b85045b68181585d2833e84879b9709143e1f593f0000001807f30644e72e131a029b85045b68181585d2833e84879b9709143e1f593f000000183606086015103010661100009610340830152610afc600361030084016100c8565b6102e0820151600191507f30644e72e131a029b85045b68181585d2833e84879b9709143e1f593f000000181610320850151096103208401527f30644e72e131a029b85045b68181585d2833e84879b9709143e1f593f00000017f0931d596de2fd10f01ddd073fd5a90a976f169c76f039bb91c4775720042d43a830991507f30644e72e131a029b85045b68181585d2833e84879b9709143e1f593f00000018082610340860151098309610340840152505050565b60007f30644e72e131a029b85045b68181585d2833e84879b9709143e1f593f0000001807f30644e72e131a029b85045b68181585d2833e84879b9709143e1f593f00000016000860135610320860151098303010690507f30644e72e131a029b85045b68181585d2833e84879b9709143e1f593f0000001807f30644e72e131a029b85045b68181585d2833e84879b9709143e1f593f000000160208601356103408601510983030106905080610180830152505050565b6101808101517f30644e72e131a029b85045b68181585d2833e84879b9709143e1f593f00000016102c0830151610320840151097f30644e72e131a029b85045b68181585d2833e84879b9709143e1f593f0000001806102a43560208601510961024435087f30644e72e131a029b85045b68181585d2833e84879b9709143e1f593f00000016040850151820890507f30644e72e131a029b85045b68181585d2833e84879b9709143e1f593f0000001806102c43560208701510961026435087f30644e72e131a029b85045b68181585d2833e84879b9709143e1f593f00000016040860151820890507f30644e72e131a029b85045b68181585d2833e84879b9709143e1f593f0000001604086015161028435087f30644e72e131a029b85045b68181585d2833e84879b9709143e1f593f0000001817f30644e72e131a029b85045b68181585d2833e84879b9709143e1f593f0000001848609097f30644e72e131a029b85045b68181585d2833e84879b9709143e1f593f00000016102e435820990507f30644e72e131a029b85045b68181585d2833e84879b9709143e1f593f00000016000880151820990507f30644e72e131a029b85045b68181585d2833e84879b9709143e1f593f000000180867f30644e72e131a029b85045b68181585d2833e84879b9709143e1f593f0000001030687087f30644e72e131a029b85045b68181585d2833e84879b9709143e1f593f000000180837f30644e72e131a029b85045b68181585d2833e84879b9709143e1f593f0000001030682089050806101a08901525050505050505050565b81518152602082015160208201525050565b818152826020820152505050565b81358152602082013560208201525050565b6040518151815260208201516020820152825160408201526020830151606082015260408260808360066107d05a03fa80610f2d576000805260206000f35b50505050565b600060405183815284602082015285604082015260408160608360076107d05a03fa915081610f66576000805260206000f35b825160408201526020830151606082015260408360808360066107d05a03fa915081610f96576000805260206000f35b505050505050565b600060405183815284602082015285604082015260408360608360076107d05a03fa915081610fd1576000805260206000f35b505050505050565b610fea836020840151845184610f9e565b505050565b6101c081016040820151604051610100810160405261104f7f2199e3e9da9a7213f9a6b92a5c0d8d55298840d5938c9bae72fd6b74293a51bf7f2dc5274f0eae7741e80dc0171e57cea4e7659f871c904bce1e14f92d45f4b95485610ece565b6110c47f30644e72e131a029b85045b68181585d2833e84879b9709143e1f593f00000016102643561024435097f266fc2ac7d669c7e7cbc31c3432d49a8f10813e45bd346580b8c4b27047c926d7f1d60d283614b1d768c3a4e1d69297eb889b6db1f73fbbfed5730913ad32f83f686610f33565b611113610244357f0a1c204d930ef3cc949757cf07ce8492be4f711705b0ef105d0f5c7ded2d9dd97f2e5b01c2b8210b57a4c14d0c417540f37ec6cdc219e90f23b570f4731c43de8986610f33565b611162610264357f269d01f3c4867a743ac2cd3225c26e95c42f4e02f9cdb725746f4dcdb8f99e0f7f2bdd5cd1d2e13344d9459f85a97771da8192f5ef81d4179517bd2d6a3b7d0f1e86610f33565b6111b1610284357f0b78d34acc388bfae23a7485df6d4f5f7dd87850f18cd83928f1302d52826d737f23ebd040599447545228fa4e58abb85e9ec537d2aefdb4a2757c90a546392f7b86610f33565b60a08401517f30644e72e131a029b85045b68181585d2833e84879b9709143e1f593f0000001837f30644e72e131a029b85045b68181585d2833e84879b9709143e1f593f0000001836102443508087f30644e72e131a029b85045b68181585d2833e84879b9709143e1f593f0000001847f30644e72e131a029b85045b68181585d2833e84879b9709143e1f593f000000180600286096102643508087f30644e72e131a029b85045b68181585d2833e84879b9709143e1f593f0000001857f30644e72e131a029b85045b68181585d2833e84879b9709143e1f593f000000180600387096102843508087f30644e72e131a029b85045b68181585d2833e84879b9709143e1f593f000000160008901517f30644e72e131a029b85045b68181585d2833e84879b9709143e1f593f0000001837f30644e72e131a029b85045b68181585d2833e84879b9709143e1f593f000000186880909097f30644e72e131a029b85045b68181585d2833e84879b9709143e1f593f00000016102c08a01516103208b01510961134660c460c08901610edc565b61139f7f30644e72e131a029b85045b68181585d2833e84879b9709143e1f593f00000016101608c01517f30644e72e131a029b85045b68181585d2833e84879b9709143e1f593f00000018486080860c0890189610fd9565b7f30644e72e131a029b85045b68181585d2833e84879b9709143e1f593f0000001887f30644e72e131a029b85045b68181585d2833e84879b9709143e1f593f0000001806102a43560208f01510961024435080894507f30644e72e131a029b85045b68181585d2833e84879b9709143e1f593f0000001887f30644e72e131a029b85045b68181585d2833e84879b9709143e1f593f0000001806102c43560208f01510961026435080893507f30644e72e131a029b85045b68181585d2833e84879b9709143e1f593f00000016102e4357f30644e72e131a029b85045b68181585d2833e84879b9709143e1f593f000000160208d015160008e0151090992506115347f30644e72e131a029b85045b68181585d2833e84879b9709143e1f593f0000001847f30644e72e131a029b85045b68181585d2833e84879b9709143e1f593f0000001878909097f0e47946755d53a99c7da6891345739f6d868645d2a4ffb9bf1c9aa7eb455782f7f124cf6030780de74a42796c0c475e24715c5622c7c838a8c98297433a5d9684060408b01610f9e565b61154361010460808901610edc565b61155f60808b0151602061014401356101443560808b01610f33565b7f30644e72e131a029b85045b68181585d2833e84879b9709143e1f593f000000160808b015160808c0151096115a381602061018401356101843560808c01610f33565b6115bf6102e08c015160a08a015160808b015160808c01610f9e565b7f30644e72e131a029b85045b68181585d97816a916871ca8d3c208c16d87cfd47602060408a0101517f30644e72e131a029b85045b68181585d97816a916871ca8d3c208c16d87cfd470306602060408a0101527f30644e72e131a029b85045b68181585d97816a916871ca8d3c208c16d87cfd4760a08901517f30644e72e131a029b85045b68181585d97816a916871ca8d3c208c16d87cfd47030660a089015261166b888b610eee565b611678604089018b610eee565b611685608089018b610eee565b5050505050505050505050565b61020081016116a56101c0830182610ebc565b6116bc60c083015160206004013560043584610f33565b6116d360e083015160206044013560443584610f33565b6116eb61010083015160206084013560843584610f33565b61173b6101208301517e8a8570c77f992d57b8352604aeb65f5b91af4cb3b2e7e746cab0f23bf394607f15f87b47c61e1288b2bc98e522e65ead82a6abec953b2d7614ce85ad4b484e2284610f33565b61178c6101408301517f2b905ba944995cb013bd4f5fe8d0759233294414d46666129cee3c0158721a4a7f149305732ed15f1fa498c9fbab30feb6480ca59c0f3db066e8928840ff0048a384610f33565b5050565b7f30644e72e131a029b85045b68181585d2833e84879b9709143e1f593f00000016101a08201517f30644e72e131a029b85045b68181585d2833e84879b9709143e1f593f000000103067f30644e72e131a029b85045b68181585d2833e84879b9709143e1f593f00000018060c08401516102443509820890507f30644e72e131a029b85045b68181585d2833e84879b9709143e1f593f00000018060e08401516102643509820890507f30644e72e131a029b85045b68181585d2833e84879b9709143e1f593f0000001806101008401516102843509820890507f30644e72e131a029b85045b68181585d2833e84879b9709143e1f593f0000001806101208401516102a43509820890507f30644e72e131a029b85045b68181585d2833e84879b9709143e1f593f0000001806101408401516102c43509820890507f30644e72e131a029b85045b68181585d2833e84879b9709143e1f593f0000001806101608401516102e435098208905061191081600260016102408601610f9e565b5050565b6000604051610240810160405261018081016101c08201610200830161193c6101c484610edc565b61194861020483610edc565b6119586101608701518386610fd9565b6119628385610eee565b7f30644e72e131a029b85045b68181585d97816a916871ca8d3c208c16d87cfd4760208501517f30644e72e131a029b85045b68181585d97816a916871ca8d3c208c16d87cfd47030660208501527f2965946b7b5871f0759cfd0e3d178c15afd0ef1b41f309f3a0dc0a700fa69f3d60408501527f2826f9587a5b893486f696247867c51661ec40eec85b9ca17be9574cf54c092160608501527f2b16e17f526bcb00f9c0c7a6e2f5fe3492462faf614a15c86839d1d3308d538c60808501527f14f4415b5a9c325afa2e06cd4c473d24b317961404436bb9efd74b163a9e542a60a0850152611a5a60608701518460c08701610fd9565b7f30644e72e131a029b85045b68181585d2833e84879b9709143e1f593f00000016060870151610160880151097f30644e72e131a029b85045b68181585d2833e84879b9709143e1f593f00000017f0931d596de2fd10f01ddd073fd5a90a976f169c76f039bb91c4775720042d43a82099050611ad8818484610fd9565b611ae58260c08701610eee565b611af6610200880160c08701610eee565b7f30644e72e131a029b85045b68181585d97816a916871ca8d3c208c16d87cfd476020610240018801517f30644e72e131a029b85045b68181585d97816a916871ca8d3c208c16d87cfd470306602061024001880152611b5d610240880160c08701610eee565b7f198e9393920d483a7260bfb731fb5d25f1aa493335a9e71297e485b7aef312c26101008601527f1800deef121f1e76426a00665e5c4479674322d4f75edadd46debd5cd992f6ed6101208601527f090689d0585ff075ec9e99ad690c3395bc4b313370b38ef355acdadcd122975b6101408601527f12c85ea5db8c6deb4aab71808dcb408fe3d1e7690c43d37b4ce6cc0166fa7daa6101608601526020856101808760086107d05a03fa855181169650505050505050919050565b6040516103608101604052611c2c610206565b611c368382610250565b611c3f816109f9565b611c498382610bb2565b611c5281610c6a565b611c5b81610fef565b611c6481611692565b611c6d81611790565b611c7681611914565b61036082036040528060005260206000f35b600080fd5b600080fd5b600081905082602060180282011115611cae57611cad611c8d565b5b92915050565b600081905082602060020282011115611cd057611ccf611c8d565b5b92915050565b6000806103408385031215611cee57611ced611c88565b5b6000611cfc85828601611c92565b925050610300611d0e85828601611cb4565b9150509250929050565b60008115159050919050565b611d2d81611d18565b82525050565b6000602082019050611d486000830184611d24565b9291505056fea26469706673582212201bf4025c4b0f9d2fb92eaacfe16cb17167e435342c75a51d3c297b8b3db9815d64736f6c634300081c0033","opcodes":"PUSH1 0x80 PUSH1 0x40 MSTORE CALLVALUE DUP1 ISZERO PUSH1 0xF JUMPI PUSH1 0x0 DUP1 REVERT JUMPDEST POP PUSH2 0x1D84 DUP1 PUSH2 0x1F PUSH1 0x0 CODECOPY PUSH1 0x0 RETURN INVALID PUSH1 0x80 PUSH1 0x40 MSTORE CALLVALUE DUP1 ISZERO PUSH2 0x10 JUMPI PUSH1 0x0 DUP1 REVERT JUMPDEST POP PUSH1 0x4 CALLDATASIZE LT PUSH2 0x2B JUMPI PUSH1 0x0 CALLDATALOAD PUSH1 0xE0 SHR DUP1 PUSH4 0xC0E9D81C EQ PUSH2 0x30 JUMPI JUMPDEST PUSH1 0x0 DUP1 REVERT JUMPDEST PUSH2 0x4A PUSH1 0x4 DUP1 CALLDATASIZE SUB DUP2 ADD SWAP1 PUSH2 0x45 SWAP2 SWAP1 PUSH2 0x1CD6 JUMP JUMPDEST PUSH2 0x60 JUMP JUMPDEST PUSH1 0x40 MLOAD PUSH2 0x57 SWAP2 SWAP1 PUSH2 0x1D33 JUMP JUMPDEST PUSH1 0x40 MLOAD DUP1 SWAP2 SUB SWAP1 RETURN JUMPDEST PUSH1 0x0 PUSH2 0x1C19 JUMP JUMPDEST PUSH1 0x0 DUP1 PUSH1 0x1 DUP5 DUP5 PUSH1 0x0 DUP1 JUMPDEST DUP3 ISZERO PUSH2 0x9C JUMPI DUP3 DUP5 SDIV SWAP2 POP DUP5 DUP3 MUL DUP7 SUB SWAP1 POP DUP5 SWAP6 POP DUP1 SWAP5 POP DUP3 DUP3 MUL DUP5 SUB SWAP1 POP DUP3 SWAP4 POP DUP1 SWAP3 POP PUSH2 0x72 JUMP JUMPDEST PUSH1 0x1 DUP5 GT ISZERO PUSH2 0xAA JUMPI PUSH1 0x0 DUP1 REVERT JUMPDEST PUSH1 0x0 DUP7 SLT ISZERO PUSH2 0xB9 JUMPI DUP9 DUP7 ADD SWAP6 POP JUMPDEST DUP6 SWAP7 POP POP POP POP POP POP POP SWAP3 SWAP2 POP POP JUMP JUMPDEST PUSH1 0x40 MLOAD DUP2 PUSH1 0x20 DUP5 MUL DUP4 ADD DUP2 MLOAD PUSH1 0x20 DUP4 ADD SWAP3 POP PUSH1 0x0 JUMPDEST DUP3 DUP5 LT ISZERO PUSH2 0x120 JUMPI DUP2 DUP6 MSTORE PUSH32 0x30644E72E131A029B85045B68181585D2833E84879B9709143E1F593F0000001 DUP5 MLOAD DUP4 MULMOD SWAP2 POP PUSH1 0x20 DUP6 ADD SWAP5 POP PUSH1 0x20 DUP5 ADD SWAP4 POP PUSH2 0xDD JUMP JUMPDEST PUSH2 0x14A PUSH32 0x30644E72E131A029B85045B68181585D2833E84879B9709143E1F593F0000001 DUP4 PUSH2 0x67 JUMP JUMPDEST SWAP2 POP PUSH1 0x20 DUP6 SUB SWAP5 POP PUSH1 0x20 DUP5 SUB SWAP4 POP DUP6 SWAP3 POP JUMPDEST DUP3 DUP5 GT ISZERO PUSH2 0x1C6 JUMPI PUSH32 0x30644E72E131A029B85045B68181585D2833E84879B9709143E1F593F0000001 DUP6 MLOAD DUP4 MULMOD SWAP1 POP PUSH32 0x30644E72E131A029B85045B68181585D2833E84879B9709143E1F593F0000001 DUP5 MLOAD DUP4 MULMOD SWAP2 POP DUP1 DUP5 MSTORE PUSH1 0x20 DUP6 SUB SWAP5 POP PUSH1 0x20 DUP5 SUB SWAP4 POP PUSH2 0x15C JUMP JUMPDEST DUP2 DUP5 MSTORE POP POP POP POP POP POP POP JUMP JUMPDEST PUSH32 0x30644E72E131A029B85045B68181585D2833E84879B9709143E1F593F0000001 DUP2 LT PUSH2 0x203 JUMPI PUSH1 0x0 DUP1 MSTORE PUSH1 0x20 PUSH1 0x0 RETURN JUMPDEST POP JUMP JUMPDEST PUSH2 0x212 PUSH2 0x244 CALLDATALOAD PUSH2 0x1D2 JUMP JUMPDEST PUSH2 0x21E PUSH2 0x264 CALLDATALOAD PUSH2 0x1D2 JUMP JUMPDEST PUSH2 0x22A PUSH2 0x284 CALLDATALOAD PUSH2 0x1D2 JUMP JUMPDEST PUSH2 0x236 PUSH2 0x2A4 CALLDATALOAD PUSH2 0x1D2 JUMP JUMPDEST PUSH2 0x242 PUSH2 0x2C4 CALLDATALOAD PUSH2 0x1D2 JUMP JUMPDEST PUSH2 0x24E PUSH2 0x2E4 CALLDATALOAD PUSH2 0x1D2 JUMP JUMPDEST JUMP JUMPDEST PUSH1 0x0 DUP1 PUSH1 0x40 MLOAD PUSH32 0x1D60D283614B1D768C3A4E1D69297EB889B6DB1F73FBBFED5730913AD32F83F6 DUP2 MSTORE PUSH32 0x266FC2AC7D669C7E7CBC31C3432D49A8F10813E45BD346580B8C4B27047C926D PUSH1 0x20 DUP3 ADD MSTORE PUSH32 0x2E5B01C2B8210B57A4C14D0C417540F37EC6CDC219E90F23B570F4731C43DE89 PUSH1 0x40 DUP3 ADD MSTORE PUSH32 0xA1C204D930EF3CC949757CF07CE8492BE4F711705B0EF105D0F5C7DED2D9DD9 PUSH1 0x60 DUP3 ADD MSTORE PUSH32 0x2BDD5CD1D2E13344D9459F85A97771DA8192F5EF81D4179517BD2D6A3B7D0F1E PUSH1 0x80 DUP3 ADD MSTORE PUSH32 0x269D01F3C4867A743AC2CD3225C26E95C42F4E02F9CDB725746F4DCDB8F99E0F PUSH1 0xA0 DUP3 ADD MSTORE PUSH32 0x23EBD040599447545228FA4E58ABB85E9EC537D2AEFDB4A2757C90A546392F7B PUSH1 0xC0 DUP3 ADD MSTORE PUSH32 0xB78D34ACC388BFAE23A7485DF6D4F5F7DD87850F18CD83928F1302D52826D73 PUSH1 0xE0 DUP3 ADD MSTORE PUSH32 0x2DC5274F0EAE7741E80DC0171E57CEA4E7659F871C904BCE1E14F92D45F4B954 PUSH2 0x100 DUP3 ADD MSTORE PUSH32 0x2199E3E9DA9A7213F9A6B92A5C0D8D55298840D5938C9BAE72FD6B74293A51BF PUSH2 0x120 DUP3 ADD MSTORE PUSH32 0x15F87B47C61E1288B2BC98E522E65EAD82A6ABEC953B2D7614CE85AD4B484E22 PUSH2 0x140 DUP3 ADD MSTORE PUSH31 0x8A8570C77F992D57B8352604AEB65F5B91AF4CB3B2E7E746CAB0F23BF39460 PUSH2 0x160 DUP3 ADD MSTORE PUSH32 0x149305732ED15F1FA498C9FBAB30FEB6480CA59C0F3DB066E8928840FF0048A3 PUSH2 0x180 DUP3 ADD MSTORE PUSH32 0x2B905BA944995CB013BD4F5FE8D0759233294414D46666129CEE3C0158721A4A PUSH2 0x1A0 DUP3 ADD MSTORE PUSH32 0x124CF6030780DE74A42796C0C475E24715C5622C7C838A8C98297433A5D96840 PUSH2 0x1C0 DUP3 ADD MSTORE PUSH32 0xE47946755D53A99C7DA6891345739F6D868645D2A4FFB9BF1C9AA7EB455782F PUSH2 0x1E0 DUP3 ADD MSTORE PUSH1 0x0 DUP6 ADD CALLDATALOAD PUSH2 0x200 DUP3 ADD MSTORE PUSH1 0x20 DUP6 ADD CALLDATALOAD PUSH2 0x220 DUP3 ADD MSTORE PUSH1 0x4 CALLDATALOAD PUSH2 0x240 DUP3 ADD MSTORE PUSH1 0x20 PUSH1 0x4 ADD CALLDATALOAD PUSH2 0x260 DUP3 ADD MSTORE PUSH1 0x44 CALLDATALOAD PUSH2 0x280 DUP3 ADD MSTORE PUSH1 0x20 PUSH1 0x44 ADD CALLDATALOAD PUSH2 0x2A0 DUP3 ADD MSTORE PUSH1 0x84 CALLDATALOAD PUSH2 0x2C0 DUP3 ADD MSTORE PUSH1 0x20 PUSH1 0x84 ADD CALLDATALOAD PUSH2 0x2E0 DUP3 ADD MSTORE PUSH32 0x30644E72E131A029B85045B68181585D2833E84879B9709143E1F593F0000001 PUSH2 0x300 DUP3 KECCAK256 MOD SWAP3 POP DUP3 PUSH1 0x20 DUP6 ADD MSTORE PUSH32 0x30644E72E131A029B85045B68181585D2833E84879B9709143E1F593F0000001 PUSH1 0x20 DUP1 DUP7 ADD KECCAK256 MOD PUSH1 0x40 DUP6 ADD MSTORE PUSH1 0x20 DUP5 ADD MLOAD DUP2 MSTORE PUSH1 0x40 DUP5 ADD MLOAD PUSH1 0x20 DUP3 ADD MSTORE PUSH1 0xC4 CALLDATALOAD PUSH1 0x40 DUP3 ADD MSTORE PUSH1 0x20 PUSH1 0xC4 ADD CALLDATALOAD PUSH1 0x60 DUP3 ADD MSTORE PUSH32 0x30644E72E131A029B85045B68181585D2833E84879B9709143E1F593F0000001 PUSH1 0x80 DUP3 KECCAK256 MOD SWAP2 POP DUP2 PUSH1 0x0 DUP6 ADD MSTORE PUSH32 0x30644E72E131A029B85045B68181585D2833E84879B9709143E1F593F0000001 DUP3 DUP4 MULMOD PUSH2 0x2C0 DUP6 ADD MSTORE DUP2 DUP2 MSTORE PUSH2 0x104 CALLDATALOAD PUSH1 0x20 DUP3 ADD MSTORE PUSH1 0x20 PUSH2 0x104 ADD CALLDATALOAD PUSH1 0x40 DUP3 ADD MSTORE PUSH2 0x144 CALLDATALOAD PUSH1 0x60 DUP3 ADD MSTORE PUSH1 0x20 PUSH2 0x144 ADD CALLDATALOAD PUSH1 0x80 DUP3 ADD MSTORE PUSH2 0x184 CALLDATALOAD PUSH1 0xA0 DUP3 ADD MSTORE PUSH1 0x20 PUSH2 0x184 ADD CALLDATALOAD PUSH1 0xC0 DUP3 ADD MSTORE PUSH32 0x30644E72E131A029B85045B68181585D2833E84879B9709143E1F593F0000001 PUSH1 0xE0 DUP3 KECCAK256 MOD SWAP2 POP DUP2 PUSH1 0x60 DUP6 ADD MSTORE DUP2 DUP2 MSTORE PUSH2 0x244 CALLDATALOAD PUSH1 0x20 DUP3 ADD MSTORE PUSH2 0x264 CALLDATALOAD PUSH1 0x40 DUP3 ADD MSTORE PUSH2 0x284 CALLDATALOAD PUSH1 0x60 DUP3 ADD MSTORE PUSH2 0x2A4 CALLDATALOAD PUSH1 0x80 DUP3 ADD MSTORE PUSH2 0x2C4 CALLDATALOAD PUSH1 0xA0 DUP3 ADD MSTORE PUSH2 0x2E4 CALLDATALOAD PUSH1 0xC0 DUP3 ADD MSTORE PUSH32 0x30644E72E131A029B85045B68181585D2833E84879B9709143E1F593F0000001 PUSH1 0xE0 DUP3 KECCAK256 MOD DUP1 PUSH1 0xC0 DUP7 ADD MSTORE PUSH32 0x30644E72E131A029B85045B68181585D2833E84879B9709143E1F593F0000001 DUP4 DUP6 MULMOD PUSH1 0xA0 DUP7 ADD MSTORE PUSH32 0x30644E72E131A029B85045B68181585D2833E84879B9709143E1F593F0000001 DUP4 DUP5 MULMOD SWAP3 POP PUSH32 0x30644E72E131A029B85045B68181585D2833E84879B9709143E1F593F0000001 DUP4 DUP5 MULMOD SWAP3 POP PUSH32 0x30644E72E131A029B85045B68181585D2833E84879B9709143E1F593F0000001 DUP4 DUP5 MULMOD SWAP3 POP PUSH32 0x30644E72E131A029B85045B68181585D2833E84879B9709143E1F593F0000001 DUP4 DUP5 MULMOD SWAP3 POP PUSH32 0x30644E72E131A029B85045B68181585D2833E84879B9709143E1F593F0000001 DUP4 DUP5 MULMOD SWAP3 POP PUSH32 0x30644E72E131A029B85045B68181585D2833E84879B9709143E1F593F0000001 DUP4 DUP5 MULMOD SWAP3 POP PUSH32 0x30644E72E131A029B85045B68181585D2833E84879B9709143E1F593F0000001 DUP4 DUP5 MULMOD SWAP3 POP PUSH32 0x30644E72E131A029B85045B68181585D2833E84879B9709143E1F593F0000001 DUP4 DUP5 MULMOD SWAP3 POP PUSH32 0x30644E72E131A029B85045B68181585D2833E84879B9709143E1F593F0000001 DUP4 DUP5 MULMOD SWAP3 POP PUSH32 0x30644E72E131A029B85045B68181585D2833E84879B9709143E1F593F0000001 DUP4 DUP5 MULMOD SWAP3 POP PUSH32 0x30644E72E131A029B85045B68181585D2833E84879B9709143E1F593F0000001 DUP4 DUP5 MULMOD SWAP3 POP PUSH32 0x30644E72E131A029B85045B68181585D2833E84879B9709143E1F593F0000001 DUP4 DUP5 MULMOD SWAP3 POP DUP3 PUSH1 0x80 DUP7 ADD MSTORE PUSH32 0x30644E72E131A029B85045B68181585D2833E84879B9709143E1F593F0000001 DUP1 PUSH1 0x1 DUP6 SUB ADD MOD SWAP3 POP DUP3 PUSH2 0x2E0 DUP7 ADD MSTORE DUP3 PUSH2 0x300 DUP7 ADD MSTORE PUSH32 0x30644E72E131A029B85045B68181585D2833E84879B9709143E1F593F0000001 DUP2 DUP3 MULMOD SWAP3 POP DUP3 PUSH1 0xE0 DUP7 ADD MSTORE PUSH32 0x30644E72E131A029B85045B68181585D2833E84879B9709143E1F593F0000001 DUP2 DUP5 MULMOD SWAP3 POP DUP3 PUSH2 0x100 DUP7 ADD MSTORE PUSH32 0x30644E72E131A029B85045B68181585D2833E84879B9709143E1F593F0000001 DUP2 DUP5 MULMOD SWAP3 POP DUP3 PUSH2 0x120 DUP7 ADD MSTORE PUSH32 0x30644E72E131A029B85045B68181585D2833E84879B9709143E1F593F0000001 DUP2 DUP5 MULMOD SWAP3 POP DUP3 PUSH2 0x140 DUP7 ADD MSTORE PUSH2 0x1C4 CALLDATALOAD DUP3 MSTORE PUSH1 0x20 PUSH2 0x1C4 ADD CALLDATALOAD PUSH1 0x20 DUP4 ADD MSTORE PUSH2 0x204 CALLDATALOAD PUSH1 0x40 DUP4 ADD MSTORE PUSH1 0x20 PUSH2 0x204 ADD CALLDATALOAD PUSH1 0x60 DUP4 ADD MSTORE PUSH32 0x30644E72E131A029B85045B68181585D2833E84879B9709143E1F593F0000001 PUSH1 0x80 DUP4 KECCAK256 MOD PUSH2 0x160 DUP7 ADD MSTORE POP POP POP POP POP POP JUMP JUMPDEST PUSH1 0x1 PUSH32 0x30644E72E131A029B85045B68181585D2833E84879B9709143E1F593F0000001 DUP1 PUSH32 0x30644E72E131A029B85045B68181585D2833E84879B9709143E1F593F0000001 DUP4 PUSH1 0x60 DUP7 ADD MLOAD SUB ADD MOD PUSH2 0x1000 MULMOD PUSH2 0x320 DUP4 ADD MSTORE PUSH32 0x30644E72E131A029B85045B68181585D2833E84879B9709143E1F593F0000001 PUSH32 0x931D596DE2FD10F01DDD073FD5A90A976F169C76F039BB91C4775720042D43A DUP3 MULMOD SWAP1 POP PUSH32 0x30644E72E131A029B85045B68181585D2833E84879B9709143E1F593F0000001 DUP1 PUSH32 0x30644E72E131A029B85045B68181585D2833E84879B9709143E1F593F0000001 DUP4 PUSH1 0x60 DUP7 ADD MLOAD SUB ADD MOD PUSH2 0x1000 MULMOD PUSH2 0x340 DUP4 ADD MSTORE PUSH2 0xAFC PUSH1 0x3 PUSH2 0x300 DUP5 ADD PUSH2 0xC8 JUMP JUMPDEST PUSH2 0x2E0 DUP3 ADD MLOAD PUSH1 0x1 SWAP2 POP PUSH32 0x30644E72E131A029B85045B68181585D2833E84879B9709143E1F593F0000001 DUP2 PUSH2 0x320 DUP6 ADD MLOAD MULMOD PUSH2 0x320 DUP5 ADD MSTORE PUSH32 0x30644E72E131A029B85045B68181585D2833E84879B9709143E1F593F0000001 PUSH32 0x931D596DE2FD10F01DDD073FD5A90A976F169C76F039BB91C4775720042D43A DUP4 MULMOD SWAP2 POP PUSH32 0x30644E72E131A029B85045B68181585D2833E84879B9709143E1F593F0000001 DUP1 DUP3 PUSH2 0x340 DUP7 ADD MLOAD MULMOD DUP4 MULMOD PUSH2 0x340 DUP5 ADD MSTORE POP POP POP JUMP JUMPDEST PUSH1 0x0 PUSH32 0x30644E72E131A029B85045B68181585D2833E84879B9709143E1F593F0000001 DUP1 PUSH32 0x30644E72E131A029B85045B68181585D2833E84879B9709143E1F593F0000001 PUSH1 0x0 DUP7 ADD CALLDATALOAD PUSH2 0x320 DUP7 ADD MLOAD MULMOD DUP4 SUB ADD MOD SWAP1 POP PUSH32 0x30644E72E131A029B85045B68181585D2833E84879B9709143E1F593F0000001 DUP1 PUSH32 0x30644E72E131A029B85045B68181585D2833E84879B9709143E1F593F0000001 PUSH1 0x20 DUP7 ADD CALLDATALOAD PUSH2 0x340 DUP7 ADD MLOAD MULMOD DUP4 SUB ADD MOD SWAP1 POP DUP1 PUSH2 0x180 DUP4 ADD MSTORE POP POP POP JUMP JUMPDEST PUSH2 0x180 DUP2 ADD MLOAD PUSH32 0x30644E72E131A029B85045B68181585D2833E84879B9709143E1F593F0000001 PUSH2 0x2C0 DUP4 ADD MLOAD PUSH2 0x320 DUP5 ADD MLOAD MULMOD PUSH32 0x30644E72E131A029B85045B68181585D2833E84879B9709143E1F593F0000001 DUP1 PUSH2 0x2A4 CALLDATALOAD PUSH1 0x20 DUP7 ADD MLOAD MULMOD PUSH2 0x244 CALLDATALOAD ADDMOD PUSH32 0x30644E72E131A029B85045B68181585D2833E84879B9709143E1F593F0000001 PUSH1 0x40 DUP6 ADD MLOAD DUP3 ADDMOD SWAP1 POP PUSH32 0x30644E72E131A029B85045B68181585D2833E84879B9709143E1F593F0000001 DUP1 PUSH2 0x2C4 CALLDATALOAD PUSH1 0x20 DUP8 ADD MLOAD MULMOD PUSH2 0x264 CALLDATALOAD ADDMOD PUSH32 0x30644E72E131A029B85045B68181585D2833E84879B9709143E1F593F0000001 PUSH1 0x40 DUP7 ADD MLOAD DUP3 ADDMOD SWAP1 POP PUSH32 0x30644E72E131A029B85045B68181585D2833E84879B9709143E1F593F0000001 PUSH1 0x40 DUP7 ADD MLOAD PUSH2 0x284 CALLDATALOAD ADDMOD PUSH32 0x30644E72E131A029B85045B68181585D2833E84879B9709143E1F593F0000001 DUP2 PUSH32 0x30644E72E131A029B85045B68181585D2833E84879B9709143E1F593F0000001 DUP5 DUP7 MULMOD MULMOD PUSH32 0x30644E72E131A029B85045B68181585D2833E84879B9709143E1F593F0000001 PUSH2 0x2E4 CALLDATALOAD DUP3 MULMOD SWAP1 POP PUSH32 0x30644E72E131A029B85045B68181585D2833E84879B9709143E1F593F0000001 PUSH1 0x0 DUP9 ADD MLOAD DUP3 MULMOD SWAP1 POP PUSH32 0x30644E72E131A029B85045B68181585D2833E84879B9709143E1F593F0000001 DUP1 DUP7 PUSH32 0x30644E72E131A029B85045B68181585D2833E84879B9709143E1F593F0000001 SUB MOD DUP8 ADDMOD PUSH32 0x30644E72E131A029B85045B68181585D2833E84879B9709143E1F593F0000001 DUP1 DUP4 PUSH32 0x30644E72E131A029B85045B68181585D2833E84879B9709143E1F593F0000001 SUB MOD DUP3 ADDMOD SWAP1 POP DUP1 PUSH2 0x1A0 DUP10 ADD MSTORE POP POP POP POP POP POP POP POP JUMP JUMPDEST DUP2 MLOAD DUP2 MSTORE PUSH1 0x20 DUP3 ADD MLOAD PUSH1 0x20 DUP3 ADD MSTORE POP POP JUMP JUMPDEST DUP2 DUP2 MSTORE DUP3 PUSH1 0x20 DUP3 ADD MSTORE POP POP POP JUMP JUMPDEST DUP2 CALLDATALOAD DUP2 MSTORE PUSH1 0x20 DUP3 ADD CALLDATALOAD PUSH1 0x20 DUP3 ADD MSTORE POP POP JUMP JUMPDEST PUSH1 0x40 MLOAD DUP2 MLOAD DUP2 MSTORE PUSH1 0x20 DUP3 ADD MLOAD PUSH1 0x20 DUP3 ADD MSTORE DUP3 MLOAD PUSH1 0x40 DUP3 ADD MSTORE PUSH1 0x20 DUP4 ADD MLOAD PUSH1 0x60 DUP3 ADD MSTORE PUSH1 0x40 DUP3 PUSH1 0x80 DUP4 PUSH1 0x6 PUSH2 0x7D0 GAS SUB STATICCALL DUP1 PUSH2 0xF2D JUMPI PUSH1 0x0 DUP1 MSTORE PUSH1 0x20 PUSH1 0x0 RETURN JUMPDEST POP POP POP POP JUMP JUMPDEST PUSH1 0x0 PUSH1 0x40 MLOAD DUP4 DUP2 MSTORE DUP5 PUSH1 0x20 DUP3 ADD MSTORE DUP6 PUSH1 0x40 DUP3 ADD MSTORE PUSH1 0x40 DUP2 PUSH1 0x60 DUP4 PUSH1 0x7 PUSH2 0x7D0 GAS SUB STATICCALL SWAP2 POP DUP2 PUSH2 0xF66 JUMPI PUSH1 0x0 DUP1 MSTORE PUSH1 0x20 PUSH1 0x0 RETURN JUMPDEST DUP3 MLOAD PUSH1 0x40 DUP3 ADD MSTORE PUSH1 0x20 DUP4 ADD MLOAD PUSH1 0x60 DUP3 ADD MSTORE PUSH1 0x40 DUP4 PUSH1 0x80 DUP4 PUSH1 0x6 PUSH2 0x7D0 GAS SUB STATICCALL SWAP2 POP DUP2 PUSH2 0xF96 JUMPI PUSH1 0x0 DUP1 MSTORE PUSH1 0x20 PUSH1 0x0 RETURN JUMPDEST POP POP POP POP POP POP JUMP JUMPDEST PUSH1 0x0 PUSH1 0x40 MLOAD DUP4 DUP2 MSTORE DUP5 PUSH1 0x20 DUP3 ADD MSTORE DUP6 PUSH1 0x40 DUP3 ADD MSTORE PUSH1 0x40 DUP4 PUSH1 0x60 DUP4 PUSH1 0x7 PUSH2 0x7D0 GAS SUB STATICCALL SWAP2 POP DUP2 PUSH2 0xFD1 JUMPI PUSH1 0x0 DUP1 MSTORE PUSH1 0x20 PUSH1 0x0 RETURN JUMPDEST POP POP POP POP POP POP JUMP JUMPDEST PUSH2 0xFEA DUP4 PUSH1 0x20 DUP5 ADD MLOAD DUP5 MLOAD DUP5 PUSH2 0xF9E JUMP JUMPDEST POP POP POP JUMP JUMPDEST PUSH2 0x1C0 DUP2 ADD PUSH1 0x40 DUP3 ADD MLOAD PUSH1 0x40 MLOAD PUSH2 0x100 DUP2 ADD PUSH1 0x40 MSTORE PUSH2 0x104F PUSH32 0x2199E3E9DA9A7213F9A6B92A5C0D8D55298840D5938C9BAE72FD6B74293A51BF PUSH32 0x2DC5274F0EAE7741E80DC0171E57CEA4E7659F871C904BCE1E14F92D45F4B954 DUP6 PUSH2 0xECE JUMP JUMPDEST PUSH2 0x10C4 PUSH32 0x30644E72E131A029B85045B68181585D2833E84879B9709143E1F593F0000001 PUSH2 0x264 CALLDATALOAD PUSH2 0x244 CALLDATALOAD MULMOD PUSH32 0x266FC2AC7D669C7E7CBC31C3432D49A8F10813E45BD346580B8C4B27047C926D PUSH32 0x1D60D283614B1D768C3A4E1D69297EB889B6DB1F73FBBFED5730913AD32F83F6 DUP7 PUSH2 0xF33 JUMP JUMPDEST PUSH2 0x1113 PUSH2 0x244 CALLDATALOAD PUSH32 0xA1C204D930EF3CC949757CF07CE8492BE4F711705B0EF105D0F5C7DED2D9DD9 PUSH32 0x2E5B01C2B8210B57A4C14D0C417540F37EC6CDC219E90F23B570F4731C43DE89 DUP7 PUSH2 0xF33 JUMP JUMPDEST PUSH2 0x1162 PUSH2 0x264 CALLDATALOAD PUSH32 0x269D01F3C4867A743AC2CD3225C26E95C42F4E02F9CDB725746F4DCDB8F99E0F PUSH32 0x2BDD5CD1D2E13344D9459F85A97771DA8192F5EF81D4179517BD2D6A3B7D0F1E DUP7 PUSH2 0xF33 JUMP JUMPDEST PUSH2 0x11B1 PUSH2 0x284 CALLDATALOAD PUSH32 0xB78D34ACC388BFAE23A7485DF6D4F5F7DD87850F18CD83928F1302D52826D73 PUSH32 0x23EBD040599447545228FA4E58ABB85E9EC537D2AEFDB4A2757C90A546392F7B DUP7 PUSH2 0xF33 JUMP JUMPDEST PUSH1 0xA0 DUP5 ADD MLOAD PUSH32 0x30644E72E131A029B85045B68181585D2833E84879B9709143E1F593F0000001 DUP4 PUSH32 0x30644E72E131A029B85045B68181585D2833E84879B9709143E1F593F0000001 DUP4 PUSH2 0x244 CALLDATALOAD ADDMOD ADDMOD PUSH32 0x30644E72E131A029B85045B68181585D2833E84879B9709143E1F593F0000001 DUP5 PUSH32 0x30644E72E131A029B85045B68181585D2833E84879B9709143E1F593F0000001 DUP1 PUSH1 0x2 DUP7 MULMOD PUSH2 0x264 CALLDATALOAD ADDMOD ADDMOD PUSH32 0x30644E72E131A029B85045B68181585D2833E84879B9709143E1F593F0000001 DUP6 PUSH32 0x30644E72E131A029B85045B68181585D2833E84879B9709143E1F593F0000001 DUP1 PUSH1 0x3 DUP8 MULMOD PUSH2 0x284 CALLDATALOAD ADDMOD ADDMOD PUSH32 0x30644E72E131A029B85045B68181585D2833E84879B9709143E1F593F0000001 PUSH1 0x0 DUP10 ADD MLOAD PUSH32 0x30644E72E131A029B85045B68181585D2833E84879B9709143E1F593F0000001 DUP4 PUSH32 0x30644E72E131A029B85045B68181585D2833E84879B9709143E1F593F0000001 DUP7 DUP9 MULMOD MULMOD MULMOD PUSH32 0x30644E72E131A029B85045B68181585D2833E84879B9709143E1F593F0000001 PUSH2 0x2C0 DUP11 ADD MLOAD PUSH2 0x320 DUP12 ADD MLOAD MULMOD PUSH2 0x1346 PUSH1 0xC4 PUSH1 0xC0 DUP10 ADD PUSH2 0xEDC JUMP JUMPDEST PUSH2 0x139F PUSH32 0x30644E72E131A029B85045B68181585D2833E84879B9709143E1F593F0000001 PUSH2 0x160 DUP13 ADD MLOAD PUSH32 0x30644E72E131A029B85045B68181585D2833E84879B9709143E1F593F0000001 DUP5 DUP7 ADDMOD ADDMOD PUSH1 0xC0 DUP10 ADD DUP10 PUSH2 0xFD9 JUMP JUMPDEST PUSH32 0x30644E72E131A029B85045B68181585D2833E84879B9709143E1F593F0000001 DUP9 PUSH32 0x30644E72E131A029B85045B68181585D2833E84879B9709143E1F593F0000001 DUP1 PUSH2 0x2A4 CALLDATALOAD PUSH1 0x20 DUP16 ADD MLOAD MULMOD PUSH2 0x244 CALLDATALOAD ADDMOD ADDMOD SWAP5 POP PUSH32 0x30644E72E131A029B85045B68181585D2833E84879B9709143E1F593F0000001 DUP9 PUSH32 0x30644E72E131A029B85045B68181585D2833E84879B9709143E1F593F0000001 DUP1 PUSH2 0x2C4 CALLDATALOAD PUSH1 0x20 DUP16 ADD MLOAD MULMOD PUSH2 0x264 CALLDATALOAD ADDMOD ADDMOD SWAP4 POP PUSH32 0x30644E72E131A029B85045B68181585D2833E84879B9709143E1F593F0000001 PUSH2 0x2E4 CALLDATALOAD PUSH32 0x30644E72E131A029B85045B68181585D2833E84879B9709143E1F593F0000001 PUSH1 0x20 DUP14 ADD MLOAD PUSH1 0x0 DUP15 ADD MLOAD MULMOD MULMOD SWAP3 POP PUSH2 0x1534 PUSH32 0x30644E72E131A029B85045B68181585D2833E84879B9709143E1F593F0000001 DUP5 PUSH32 0x30644E72E131A029B85045B68181585D2833E84879B9709143E1F593F0000001 DUP8 DUP10 MULMOD MULMOD PUSH32 0xE47946755D53A99C7DA6891345739F6D868645D2A4FFB9BF1C9AA7EB455782F PUSH32 0x124CF6030780DE74A42796C0C475E24715C5622C7C838A8C98297433A5D96840 PUSH1 0x40 DUP12 ADD PUSH2 0xF9E JUMP JUMPDEST PUSH2 0x1543 PUSH2 0x104 PUSH1 0x80 DUP10 ADD PUSH2 0xEDC JUMP JUMPDEST PUSH2 0x155F PUSH1 0x80 DUP12 ADD MLOAD PUSH1 0x20 PUSH2 0x144 ADD CALLDATALOAD PUSH2 0x144 CALLDATALOAD PUSH1 0x80 DUP12 ADD PUSH2 0xF33 JUMP JUMPDEST PUSH32 0x30644E72E131A029B85045B68181585D2833E84879B9709143E1F593F0000001 PUSH1 0x80 DUP12 ADD MLOAD PUSH1 0x80 DUP13 ADD MLOAD MULMOD PUSH2 0x15A3 DUP2 PUSH1 0x20 PUSH2 0x184 ADD CALLDATALOAD PUSH2 0x184 CALLDATALOAD PUSH1 0x80 DUP13 ADD PUSH2 0xF33 JUMP JUMPDEST PUSH2 0x15BF PUSH2 0x2E0 DUP13 ADD MLOAD PUSH1 0xA0 DUP11 ADD MLOAD PUSH1 0x80 DUP12 ADD MLOAD PUSH1 0x80 DUP13 ADD PUSH2 0xF9E JUMP JUMPDEST PUSH32 0x30644E72E131A029B85045B68181585D97816A916871CA8D3C208C16D87CFD47 PUSH1 0x20 PUSH1 0x40 DUP11 ADD ADD MLOAD PUSH32 0x30644E72E131A029B85045B68181585D97816A916871CA8D3C208C16D87CFD47 SUB MOD PUSH1 0x20 PUSH1 0x40 DUP11 ADD ADD MSTORE PUSH32 0x30644E72E131A029B85045B68181585D97816A916871CA8D3C208C16D87CFD47 PUSH1 0xA0 DUP10 ADD MLOAD PUSH32 0x30644E72E131A029B85045B68181585D97816A916871CA8D3C208C16D87CFD47 SUB MOD PUSH1 0xA0 DUP10 ADD MSTORE PUSH2 0x166B DUP9 DUP12 PUSH2 0xEEE JUMP JUMPDEST PUSH2 0x1678 PUSH1 0x40 DUP10 ADD DUP12 PUSH2 0xEEE JUMP JUMPDEST PUSH2 0x1685 PUSH1 0x80 DUP10 ADD DUP12 PUSH2 0xEEE JUMP JUMPDEST POP POP POP POP POP POP POP POP POP POP POP JUMP JUMPDEST PUSH2 0x200 DUP2 ADD PUSH2 0x16A5 PUSH2 0x1C0 DUP4 ADD DUP3 PUSH2 0xEBC JUMP JUMPDEST PUSH2 0x16BC PUSH1 0xC0 DUP4 ADD MLOAD PUSH1 0x20 PUSH1 0x4 ADD CALLDATALOAD PUSH1 0x4 CALLDATALOAD DUP5 PUSH2 0xF33 JUMP JUMPDEST PUSH2 0x16D3 PUSH1 0xE0 DUP4 ADD MLOAD PUSH1 0x20 PUSH1 0x44 ADD CALLDATALOAD PUSH1 0x44 CALLDATALOAD DUP5 PUSH2 0xF33 JUMP JUMPDEST PUSH2 0x16EB PUSH2 0x100 DUP4 ADD MLOAD PUSH1 0x20 PUSH1 0x84 ADD CALLDATALOAD PUSH1 0x84 CALLDATALOAD DUP5 PUSH2 0xF33 JUMP JUMPDEST PUSH2 0x173B PUSH2 0x120 DUP4 ADD MLOAD PUSH31 0x8A8570C77F992D57B8352604AEB65F5B91AF4CB3B2E7E746CAB0F23BF39460 PUSH32 0x15F87B47C61E1288B2BC98E522E65EAD82A6ABEC953B2D7614CE85AD4B484E22 DUP5 PUSH2 0xF33 JUMP JUMPDEST PUSH2 0x178C PUSH2 0x140 DUP4 ADD MLOAD PUSH32 0x2B905BA944995CB013BD4F5FE8D0759233294414D46666129CEE3C0158721A4A PUSH32 0x149305732ED15F1FA498C9FBAB30FEB6480CA59C0F3DB066E8928840FF0048A3 DUP5 PUSH2 0xF33 JUMP JUMPDEST POP POP JUMP JUMPDEST PUSH32 0x30644E72E131A029B85045B68181585D2833E84879B9709143E1F593F0000001 PUSH2 0x1A0 DUP3 ADD MLOAD PUSH32 0x30644E72E131A029B85045B68181585D2833E84879B9709143E1F593F0000001 SUB MOD PUSH32 0x30644E72E131A029B85045B68181585D2833E84879B9709143E1F593F0000001 DUP1 PUSH1 0xC0 DUP5 ADD MLOAD PUSH2 0x244 CALLDATALOAD MULMOD DUP3 ADDMOD SWAP1 POP PUSH32 0x30644E72E131A029B85045B68181585D2833E84879B9709143E1F593F0000001 DUP1 PUSH1 0xE0 DUP5 ADD MLOAD PUSH2 0x264 CALLDATALOAD MULMOD DUP3 ADDMOD SWAP1 POP PUSH32 0x30644E72E131A029B85045B68181585D2833E84879B9709143E1F593F0000001 DUP1 PUSH2 0x100 DUP5 ADD MLOAD PUSH2 0x284 CALLDATALOAD MULMOD DUP3 ADDMOD SWAP1 POP PUSH32 0x30644E72E131A029B85045B68181585D2833E84879B9709143E1F593F0000001 DUP1 PUSH2 0x120 DUP5 ADD MLOAD PUSH2 0x2A4 CALLDATALOAD MULMOD DUP3 ADDMOD SWAP1 POP PUSH32 0x30644E72E131A029B85045B68181585D2833E84879B9709143E1F593F0000001 DUP1 PUSH2 0x140 DUP5 ADD MLOAD PUSH2 0x2C4 CALLDATALOAD MULMOD DUP3 ADDMOD SWAP1 POP PUSH32 0x30644E72E131A029B85045B68181585D2833E84879B9709143E1F593F0000001 DUP1 PUSH2 0x160 DUP5 ADD MLOAD PUSH2 0x2E4 CALLDATALOAD MULMOD DUP3 ADDMOD SWAP1 POP PUSH2 0x1910 DUP2 PUSH1 0x2 PUSH1 0x1 PUSH2 0x240 DUP7 ADD PUSH2 0xF9E JUMP JUMPDEST POP POP JUMP JUMPDEST PUSH1 0x0 PUSH1 0x40 MLOAD PUSH2 0x240 DUP2 ADD PUSH1 0x40 MSTORE PUSH2 0x180 DUP2 ADD PUSH2 0x1C0 DUP3 ADD PUSH2 0x200 DUP4 ADD PUSH2 0x193C PUSH2 0x1C4 DUP5 PUSH2 0xEDC JUMP JUMPDEST PUSH2 0x1948 PUSH2 0x204 DUP4 PUSH2 0xEDC JUMP JUMPDEST PUSH2 0x1958 PUSH2 0x160 DUP8 ADD MLOAD DUP4 DUP7 PUSH2 0xFD9 JUMP JUMPDEST PUSH2 0x1962 DUP4 DUP6 PUSH2 0xEEE JUMP JUMPDEST PUSH32 0x30644E72E131A029B85045B68181585D97816A916871CA8D3C208C16D87CFD47 PUSH1 0x20 DUP6 ADD MLOAD PUSH32 0x30644E72E131A029B85045B68181585D97816A916871CA8D3C208C16D87CFD47 SUB MOD PUSH1 0x20 DUP6 ADD MSTORE PUSH32 0x2965946B7B5871F0759CFD0E3D178C15AFD0EF1B41F309F3A0DC0A700FA69F3D PUSH1 0x40 DUP6 ADD MSTORE PUSH32 0x2826F9587A5B893486F696247867C51661EC40EEC85B9CA17BE9574CF54C0921 PUSH1 0x60 DUP6 ADD MSTORE PUSH32 0x2B16E17F526BCB00F9C0C7A6E2F5FE3492462FAF614A15C86839D1D3308D538C PUSH1 0x80 DUP6 ADD MSTORE PUSH32 0x14F4415B5A9C325AFA2E06CD4C473D24B317961404436BB9EFD74B163A9E542A PUSH1 0xA0 DUP6 ADD MSTORE PUSH2 0x1A5A PUSH1 0x60 DUP8 ADD MLOAD DUP5 PUSH1 0xC0 DUP8 ADD PUSH2 0xFD9 JUMP JUMPDEST PUSH32 0x30644E72E131A029B85045B68181585D2833E84879B9709143E1F593F0000001 PUSH1 0x60 DUP8 ADD MLOAD PUSH2 0x160 DUP9 ADD MLOAD MULMOD PUSH32 0x30644E72E131A029B85045B68181585D2833E84879B9709143E1F593F0000001 PUSH32 0x931D596DE2FD10F01DDD073FD5A90A976F169C76F039BB91C4775720042D43A DUP3 MULMOD SWAP1 POP PUSH2 0x1AD8 DUP2 DUP5 DUP5 PUSH2 0xFD9 JUMP JUMPDEST PUSH2 0x1AE5 DUP3 PUSH1 0xC0 DUP8 ADD PUSH2 0xEEE JUMP JUMPDEST PUSH2 0x1AF6 PUSH2 0x200 DUP9 ADD PUSH1 0xC0 DUP8 ADD PUSH2 0xEEE JUMP JUMPDEST PUSH32 0x30644E72E131A029B85045B68181585D97816A916871CA8D3C208C16D87CFD47 PUSH1 0x20 PUSH2 0x240 ADD DUP9 ADD MLOAD PUSH32 0x30644E72E131A029B85045B68181585D97816A916871CA8D3C208C16D87CFD47 SUB MOD PUSH1 0x20 PUSH2 0x240 ADD DUP9 ADD MSTORE PUSH2 0x1B5D PUSH2 0x240 DUP9 ADD PUSH1 0xC0 DUP8 ADD PUSH2 0xEEE JUMP JUMPDEST PUSH32 0x198E9393920D483A7260BFB731FB5D25F1AA493335A9E71297E485B7AEF312C2 PUSH2 0x100 DUP7 ADD MSTORE PUSH32 0x1800DEEF121F1E76426A00665E5C4479674322D4F75EDADD46DEBD5CD992F6ED PUSH2 0x120 DUP7 ADD MSTORE PUSH32 0x90689D0585FF075EC9E99AD690C3395BC4B313370B38EF355ACDADCD122975B PUSH2 0x140 DUP7 ADD MSTORE PUSH32 0x12C85EA5DB8C6DEB4AAB71808DCB408FE3D1E7690C43D37B4CE6CC0166FA7DAA PUSH2 0x160 DUP7 ADD MSTORE PUSH1 0x20 DUP6 PUSH2 0x180 DUP8 PUSH1 0x8 PUSH2 0x7D0 GAS SUB STATICCALL DUP6 MLOAD DUP2 AND SWAP7 POP POP POP POP POP POP POP SWAP2 SWAP1 POP JUMP JUMPDEST PUSH1 0x40 MLOAD PUSH2 0x360 DUP2 ADD PUSH1 0x40 MSTORE PUSH2 0x1C2C PUSH2 0x206 JUMP JUMPDEST PUSH2 0x1C36 DUP4 DUP3 PUSH2 0x250 JUMP JUMPDEST PUSH2 0x1C3F DUP2 PUSH2 0x9F9 JUMP JUMPDEST PUSH2 0x1C49 DUP4 DUP3 PUSH2 0xBB2 JUMP JUMPDEST PUSH2 0x1C52 DUP2 PUSH2 0xC6A JUMP JUMPDEST PUSH2 0x1C5B DUP2 PUSH2 0xFEF JUMP JUMPDEST PUSH2 0x1C64 DUP2 PUSH2 0x1692 JUMP JUMPDEST PUSH2 0x1C6D DUP2 PUSH2 0x1790 JUMP JUMPDEST PUSH2 0x1C76 DUP2 PUSH2 0x1914 JUMP JUMPDEST PUSH2 0x360 DUP3 SUB PUSH1 0x40 MSTORE DUP1 PUSH1 0x0 MSTORE PUSH1 0x20 PUSH1 0x0 RETURN JUMPDEST PUSH1 0x0 DUP1 REVERT JUMPDEST PUSH1 0x0 DUP1 REVERT JUMPDEST PUSH1 0x0 DUP2 SWAP1 POP DUP3 PUSH1 0x20 PUSH1 0x18 MUL DUP3 ADD GT ISZERO PUSH2 0x1CAE JUMPI PUSH2 0x1CAD PUSH2 0x1C8D JUMP JUMPDEST JUMPDEST SWAP3 SWAP2 POP POP JUMP JUMPDEST PUSH1 0x0 DUP2 SWAP1 POP DUP3 PUSH1 0x20 PUSH1 0x2 MUL DUP3 ADD GT ISZERO PUSH2 0x1CD0 JUMPI PUSH2 0x1CCF PUSH2 0x1C8D JUMP JUMPDEST JUMPDEST SWAP3 SWAP2 POP POP JUMP JUMPDEST PUSH1 0x0 DUP1 PUSH2 0x340 DUP4 DUP6 SUB SLT ISZERO PUSH2 0x1CEE JUMPI PUSH2 0x1CED PUSH2 0x1C88 JUMP JUMPDEST JUMPDEST PUSH1 0x0 PUSH2 0x1CFC DUP6 DUP3 DUP7 ADD PUSH2 0x1C92 JUMP JUMPDEST SWAP3 POP POP PUSH2 0x300 PUSH2 0x1D0E DUP6 DUP3 DUP7 ADD PUSH2 0x1CB4 JUMP JUMPDEST SWAP2 POP POP SWAP3 POP SWAP3 SWAP1 POP JUMP JUMPDEST PUSH1 0x0 DUP2 ISZERO ISZERO SWAP1 POP SWAP2 SWAP1 POP JUMP JUMPDEST PUSH2 0x1D2D DUP2 PUSH2 0x1D18 JUMP JUMPDEST DUP3 MSTORE POP POP JUMP JUMPDEST PUSH1 0x0 PUSH1 0x20 DUP3 ADD SWAP1 POP PUSH2 0x1D48 PUSH1 0x0 DUP4 ADD DUP5 PUSH2 0x1D24 JUMP JUMPDEST SWAP3 SWAP2 POP POP JUMP INVALID LOG2 PUSH5 0x6970667358 0x22 SLT KECCAK256 SHL DELEGATECALL MUL TLOAD 0x4B 0xF SWAP14 0x2F 0xB9 0x2E 0xAA 0xCF 0xE1 PUSH13 0xB17167E435342C75A51D3C297B DUP12 RETURNDATASIZE 0xB9 DUP2 TSTORE PUSH5 0x736F6C6343 STOP ADDMOD SHR STOP CALLER "},"methodIdentifiers":{"verifyProof(uint256[24],uint256[2])":"c0e9d81c"}}}}}